:020000040000FA
:10000000280200208D0100009101000093010000F2
:1000100000000000000000000000000000000000E0
:10002000000000000000000000000000950100003A
:10003000000000000000000097010000990100008E
:100040009B0100009B010000B114000000000000B3
:100050009B01000000000000000000000000000004
:10006000000000009B0100000000000000000000F4
:10007000000000009B010000000000009B01000048
:1000800039130000000000009B0100000000000088
:100090009B010000000000000000000000000000C4
:1000A0009B0100009B010000000000000000000018
:1000B0000000000000000000000000009B010000A4
:1000C00000F002F800F052F812A030C808382418E6
:1000D0002D18AC4201D100F049F80FCCA246AB4636
:1000E0000CA730CF2D1B083F3F197C427F1E544484
:1000F0002D090426F441641EAC4201D300F036F809
:100100000126334200D0FB1A3343984754465D46DC
:10011000DFE70000A4390000C4390000000000003F
:10012000103A02D378C878C1FAD8520701D330C840
:1001300030C101D504680C60704700000000000069
:100140007047000000000000002300240025002666
:10015000103A01D378C1FBD8520700D330C100D583
:100160000B6070471FB51FBD10B510BD00F0DDF866
:100170001146FFF7F7FF02F0CFF900F0F5F803B4EE
:10018000FFF7F2FF03BC00F0FBF800000648004751
:10019000FEE7FEE7FEE7FEE7FEE7FEE70348044969
:1001A000024A044B70470000C100000028010020F3
:1001B0002802002028010020002203098B422CD3B2
:1001C000030A8B4211D300239C464EE003460B43A7
:1001D0003CD4002243088B4231D303098B421CD309
:1001E000030A8B4201D394463FE0C3098B4201D3FB
:1001F000CB01C01A524183098B4201D38B01C01A33
:10020000524143098B4201D34B01C01A52410309A9
:100210008B4201D30B01C01A5241C3088B4201D358
:10022000CB00C01A524183088B4201D38B00C01A05
:10023000524143088B4201D34B00C01A5241411A2C
:1002400000D201465241104670475DE0CA0F00D00F
:100250004942031000D3404253409C460022030908
:100260008B422DD3030A8B4212D38901FC2212BA8E
:10027000030A8B420CD3890192118B4208D3890166
:1002800092118B4204D389013AD0921100E089097E
:10029000C3098B4201D3CB01C01A524183098B425F
:1002A00001D38B01C01A524143098B4201D34B0148
:1002B000C01A524103098B4201D30B01C01A5241AB
:1002C000C3088B4201D3CB00C01A524183088B4232
:1002D00001D38B00C01A5241D9D243088B4201D3BB
:1002E0004B00C01A5241411A00D2014652411046F9
:1002F00063465B1001D34042002B00D54942704752
:1003000063465B1000D3404201B50549002802DC7A
:10031000491C084000E00846C046C04602BD00BF78
:10032000FFFFFF7F704770477047754600F024F865
:10033000AE46050069465346C008C000854618B061
:1003400020B5FFF72BFF60BCB64600260027C0C5CE
:10035000C0C5C0C5C0C5C0C5C0C5C0C5C0C5403D7D
:10036000490849008D46704710B50446C046C0464E
:100370002046FFF704FF10BD00487047980000209A
:1003800001491820ABBEFEE726000200704780B589
:100390008CB0002107911B220A92084600F048FD0C
:1003A0000799102009901C22029200F041FD079944
:1003B00020200390312200F097FD079960200490DF
:1003C0001A22089200F034FD0799722005907522D8
:1003D00000F08AFD07980A9A0221019100F028FD99
:1003E0000199029A099800F023FD0199039832229D
:1003F00000F07AFD01990498089A00F019FD01991E
:100400000598642200F070FD07980A9A042106916D
:1004100000F00EFD029A0699099800F009FD039874
:100420000699332200F060FD04980699089A00F0BE
:10043000FFFC059806996C2200F056FD0798089A73
:1004400006210B9100F0F4FC09980B99712200F041
:100450004BFD0A980B99292200F0EAFC0B992B20FE
:100460002A2200F0E5FC0CB080BD81B00090801E17
:10047000001F00BFFCD201B0704784B0039002910E
:1004800001920398006800900098019988430090B9
:1004900000980299019A114008430399086004B03A
:1004A000704784B003900291019203980068009015
:1004B000009801998843009000980299019A114090
:1004C00008430399086004B0704784B00390029118
:1004D0000192039800680090009801998843009069
:1004E00000980299019A114008430399086004B0EA
:1004F000704782B0019000910098019995225201B5
:10050000885002B0704782B0019000910098019924
:1005100095225201885002B0704782B0019000913C
:100520000098019995225201885002B0704700004E
:1005300082B00190009100980199024A885002B05F
:100540007047C046D012000081B000900099012091
:10055000C2027148885001B07047C04610B584B0DF
:10056000069C03900291019200930298019908431E
:1005700000990843069908430349084303998900F1
:10058000144A885004B010BD8100040081B000906E
:10059000009881000F4A8120885001B07047C04602
:1005A00082B00190009100980349084301998900A5
:1005B000084A885002B070478000040082B0019061
:1005C000009100988021084301998900014A8850D0
:1005D00002B070470480424082B0019000910198BF
:1005E0002721C90140580099084002B07047000017
:1005F00081B000900099CF4ACF48885001B0704731
:1006000082B001900091009B0199034A88581843D9
:10061000885002B07047C0469013000082B001902D
:100620000091009801990C4A885002B07047C0466A
:1006300082B00190009100980199074A885002B059
:100640007047C04682B00190009100980199024A1B
:10065000885002B07047C0469012000082B00190EE
:100660000091009B01999D204201885818438850B1
:1006700002B070470F490868012212031043086056
:100680007047C04681B00146684601700078024953
:10069000086001B07047C04608030B4080B582B0C7
:1006A000014601A80170017802480F22FFF7E5FE1C
:1006B00002B080BD04010B4080B582B0014601A8A4
:1006C0000170017802480322FFF7D7FE02B080BD17
:1006D00000010B4081B000900099024A012088502F
:1006E00001B070470811000082B001900091009B9A
:1006F0000199034A88581843885002B07047C04691
:100700002810000081B0009000990120C202024828
:10071000885001B07047C0460100002680B58AB0FD
:1007200009900891089800790790002804D0FFE705
:100730000798202812D029E0099808990968491ECD
:1007400000F0CCF9099888210691002200F018F9F0
:1007500006990998012200F013F92AE009980899EE
:100760000968491E00F0BAF909982D490491002240
:1007700000F006F9049909980122059200F000F9A9
:1007800005990998490700F09BF912E00998089922
:100790000968490800F0A2F909980521C9010391E7
:1007A000002200F0EDF803990998012200F0E8F822
:1007B000FFE709980023019319461A4600F0FAF85A
:1007C000019A099801230293114600F0F3F8019B66
:1007D0000998009319461A4600F024F9019B0299E2
:1007E0000998009119461A4600F01CF9019B0998D6
:1007F00019461A4600F0FCF8019A029B0998114626
:1008000000F0F6F80998C5494018089A117952790C
:10081000114302221143034AFFF743FE0AB080BD91
:1008200001040000BFFF003080B584B00390029146
:1008300003980299496800F051F9029800780190F4
:10084000222856D80198810001A040588746C0460A
:10085000E9080000F3080000E9080000F3080000C0
:10086000F3080000F3080000F3080000F30800009C
:10087000F3080000F3080000F3080000F30800008C
:10088000F3080000F3080000F3080000F30800007C
:10089000DD080000F3080000DD080000F308000098
:1008A000F3080000F3080000F3080000F30800005C
:1008B000F3080000F3080000F3080000F30800004C
:1008C000F3080000F3080000F3080000F30800003C
:1008D000DD080000F3080000DD0800000398012196
:1008E000490700F0EDF805E00398002100F0E8F872
:1008F00000E0FFE703980299098A0022009200F0C5
:10090000B1F8009B03980299C9681A4600F052F8A2
:1009100002990878097A08430399804A885004B0FC
:1009200080BDC04681B000900099A44AA448885078
:1009300001B0704704080000030000B182B00190CC
:1009400000910098019911221202885002B070475C
:1009500080B584B00390029101A802700399224AE5
:10096000891800910178009889004018009000983B
:10097000029907229204FFF794FD04B080BDC0469F
:1009800080B584B00390029101A802700399074AD0
:10099000891800910178009889004018009000980B
:1009A0000299034AFFF77DFD04B080BD7018000076
:1009B000DB06C00F10B586B005900491039202A823
:1009C00003700599084A89180191017801988900F6
:1009D0004018019001980499039A1143034AFFF7C4
:1009E00060FD06B010BDC0463018000077770200E9
:1009F00010B586B005900491039202A80370059982
:100A00003122D2018918019101780198890040189A
:100A1000019001980499039A11438F22FFF741FD39
:100A200006B010BD10B587B0009104460098099932
:100A3000069405900492039302A801700699084A4F
:100A40008918019101780198890040180190059852
:100A500004990843039908430199086007B010BD41
:100A60005018000084B00390029101A8027003990D
:100A7000064A891800910178009889004018009072
:100A800002980099086004B07047C0461018000032
:100A900082B001900091009800780199644A8850D2
:100AA00000984078019901221203885000988078BC
:100AB0000199024A885002B07047C0460C110000EC
:100AC00080B582B0019000910198144940180099B6
:100AD00003221207FFF7E5FC02B080BD82B001904F
:100AE000009100980199024A885002B07047C046B0
:100AF0000818000081B000900099084A8858012326
:100B00001843885001B0704781B000900099034AA3
:100B1000885801239843885001B07047041800009A
:100B200081B0009000991120020288580123984357
:100B3000885001B0704781B00090009911200202E6
:100B4000885801231843885001B0704781B0009045
:100B500000990120C2020248885001B07047C04687
:100B60000100002680B582B0019000910198FFF746
:100B7000D7FF0198112109024018009A1188937833
:100B8000194392881143084AFFF79FFC01981F49B7
:100B90004018009A9179D3791943127A11437E2231
:100BA000FFF793FC02B080BD1867020081B000908F
:100BB0000099024A0248885001B0704704080000BA
:100BC000030000B180B584B00390029101920398B4
:100BD0000B49401802990B4AFFF74FFC03980A494A
:100BE000401801993F22FFF748FC0399074A8818EB
:100BF000895801221140FFF740FC04B080BDC04677
:100C000010110000FFFF000014110000041100008B
:100C100082B001900091009800780199044A8850B0
:100C200000984078019901221203885002B0704761
:100C30000810000080B582B0019000910198112148
:100C40000902401800990322D203FFF716FC02B0F4
:100C500080BD80B584B003A900200870FFE703A819
:100C60000078072828DCFFE70398B030C0B20021E5
:100C7000019100F0D1F90199022000F0CDF901991C
:100C8000102000F0C9F9019802A90870FFE702A836
:100C900000787F280ADCFFE70020012100F0BCF982
:100CA000FFE70298401C02A90870F0E7FFE70398ED
:100CB000401C03A90870D2E704B080BD80B588B09D
:100CC000012041060291FB480190FFF7BBFC642024
:100CD000009000F091FF01980299FFF71EFC009828
:100CE00000F08AFF01980299FFF7ACFCAE200021CA
:100CF000079100F091F907990220049000F08CF917
:100D00000799102000F088F907994020039000F01F
:100D100083F90799812000F07FF90799CF2000F02F
:100D20007BF90799A12000F077F90799C82000F016
:100D300073F90799A620059000F06EF90799A8208D
:100D400000F06AF907993F2000F066F90799D3206F
:100D500000F062F90799084600F05EF90799D5207E
:100D600000F05AF90799802000F056F90799D92028
:100D700000F052F90799F12000F04EF90799DA20B6
:100D800000F04AF90799122000F046F90799DB2094
:100D900000F042F90398079900F03EF907992020E6
:100DA00000F03AF90498079900F036F907998D2078
:100DB00000F032F90799142000F02EF90799A420C9
:100DC00000F02AF90598079900F026F90799AF2055
:100DD000069000F021F90698079900F01DF9FFF739
:100DE00038FF0799084600F003F808B080BDC046F8
:100DF00080B584B003AA0092107002A80170029816
:100E0000B030C0B20021019100F006F900980199BC
:100E100000780009103000F0FFF8019903980122D2
:100E200010430F22104000F0F7F804B080BD00001E
:100E300080B586B00B46014605A8017004A90B7069
:100E400003AB1A7001AB002200921A700078097887
:100E5000FFF7CEFF009802A90870FFE702A800780C
:100E60000F2815DCFFE703A8007881011D48401812
:100E700002A90978405C012100F0CEF80198401CDD
:100E800001A90870FFE70298401C02A90870E5E775
:100E900005A800780499491CC9B2FFF7A9FF02A967
:100EA00000200870FFE702A800780F2817DCFFE792
:100EB00003A8007881010B48401802A9097840185E
:100EC0002021405C012100F0A7F80198401C01A9F5
:100ED0000870FFE70298401C02A90870E3E706B01B
:100EE00080BDC0466629000080B586B0034605A8CF
:100EF000037004AB197003A90A7002AA00211170D3
:100F000001AB19700399203911700078802808DB33
:100F1000FFE705A9002008700498801C04A9087048
:100F2000FFE705A8007804A90978FFF761FF01A988
:100F300000200870FFE701A80078072811DCFFE710
:100F400002A80078000101A9097841181748405CFF
:100F5000012100F061F8FFE70198401C01A9087029
:100F6000E9E705A800780499491CC9B2FFF740FFDA
:100F700001A900200870FFE701A80078072812DC0B
:100F8000FFE702A80078000101A909784018074985
:100F90004018007A012100F03FF8FFE70198401C5B
:100FA00001A90870E8E706B080BDC04666340000BD
:100FB00080B586B005AB187004A80170039202A931
:100FC00000200870FFE7039802A90978405C002818
:100FD00020D0FFE705A80190007804A90978039ABA
:100FE00002AB1B78D25CFFF77FFF019805990831AF
:100FF00001700078792808DBFFE705A90020087058
:101000000498801C04A90870FFE70298401C02A9FC
:101010000870D8E706B080BD80B584B003AA107010
:1010200002A801700078002805D0FFE7BD48102114
:10103000FFF708FB04E0BB481021FFF76EFAFFE75B
:10104000B8480421FFF769FA01A900200870FFE7FA
:1010500001A80078072822DCFFE7B2484021FFF70B
:101060005CFA03A800780006002805D5FFE7AD4824
:101070002021FFF7E7FA04E0AA482021FFF74DFA04
:10108000FFE7A8484021FFF7DDFA0398400003A9D5
:101090000870FFE70198401C01A90870D8E7A14833
:1010A00000900421FFF7CEFA00981021FFF7CAFA4A
:1010B00004B080BD00000A4080B588B0082005213A
:1010C0000691FFF77BFA01200390010295480790F3
:1010D000FFF72EFA0A2002210291FFF76FFA029918
:1010E0000B20FFF75DFA0298FFF750FA1920FFF77F
:1010F0004DFA0620FFF74AFA0698FFF747FA042050
:10110000FFF744FA00200590FFF740FA0398FFF735
:101110003DFA0720FFF73AFA0C20FFF737FA039859
:10112000059B0093420404920D201946FFF716FA1E
:10113000049A059B00930E201946FFF70FFA049AB4
:10114000059B009311201946FFF708FA049A059BA6
:10115000009312201946FFF701FA0F20FFF716FA45
:1011600007980B49FFF7CFF907980A49FFF760FA8C
:1011700007980949FFF7DCF906990798C906FFF7B0
:101180003FFA07982821FFF769FA08B080BDC046EA
:10119000F310000204800000F790000280B584B0D4
:1011A000114961480390FFF773FC03980F49FFF75B
:1011B000B5FA03980E4900220292FFF753FC029BF6
:1011C0000398009319461A46FFF72CFC029A0398DD
:1011D0001146FFF7BDFB0398FFF77CFA0398012146
:1011E000FFF7ACFB04B080BD563A00005C3A00004B
:1011F0008813000080B582B000200190FFF742FA0A
:101200000198FFF759FAFFF735FA0198FFF746FA08
:1012100002B080BD80B582B0084944480190FFF714
:1012200037FC01980649FFF7FFFA01980121FFF703
:101230005BFA0198FFF74EFA02B080BD643A0000F5
:10124000683A000080B582B0084939480190FFF73C
:101250001FFC01980649FFF7E7FA01980121FFF703
:1012600043FA0198FFF736FA02B080BD7C3A0000DD
:10127000803A000080B582B00B492E480190FFF7FC
:10128000C7FC01980949FFF76DFC01980021FFF7A1
:10129000D1FC019811211722FFF794FC0198FFF768
:1012A0004AFC02B080BDC046943A0000963A000065
:1012B00080B500F00DF8FFF7FFFEFFF79BFFFFF78B
:1012C0006DFFFFF7A7FFFFF7BDFFFFF7D3FF80BD5F
:1012D00080B586B013480190FFF78AF91248029052
:1012E000FFF720FB11480390FFF71CFB1048049008
:1012F000FFF718FB0F480590FFF758FC0198FFF720
:1013000023F90298FFF7FEF90398FFF7FBF9049819
:10131000FFF7F8F90598FFF719FC1020FFF7A5F87B
:1013200006B080BD00000A40008008400040084030
:10133000006008400000104080B58CB05148006843
:101340000B90514800680A90504800680990504836
:10135000006808904F48006807904F480068069062
:101360000998401C099009983C285FD3FFE70020AA
:1013700009900A98401C0A900A983C2855D3FFE728
:1013800000200A900B98401C0B900B984349096869
:1013900088420DD3FFE741480068182808D1FFE7CD
:1013A00000200B9008A807A906AA00F087F93BE0E7
:1013B0003A4800680C2836D1FFE7394800784128C0
:1013C0000AD1FFE70B9835490968884204D1FFE745
:1013D00033495020087025E031480078502809D161
:1013E000FFE70B982D490968884203D9FFE70120E0
:1013F0000B9016E02A480078502811D1FFE70B988F
:101400002649096888420BD1FFE725494120087029
:1014100000200B9008A807A906AA00F04FF9FFE7E3
:10142000FFE7FFE7FFE7FFE7FFE7FFE70B98039022
:101430000A980490099805900898009007980190E0
:1014400006980290174803A900F064FF1648694601
:1014500001F09CF90B980B4908600A980A4908604A
:1014600009980A49086006980B49086007980949D5
:1014700008600898064908600C49012008700CB003
:1014800080BDC04620000020200100202401002053
:1014900090000020240000201C00002018000020E4
:1014A000000000202B00002003000020120100207B
:1014B00080B586B01F48006805901F4800680490FA
:1014C0001E48006803900398401C039003983C2832
:1014D00017D3FFE7002003900498401C0490049861
:1014E0003C280DD3FFE7002004900598401C059090
:1014F0000598642803D3FFE700200590FFE7FFE786
:10150000FFE70598009004980190039802900C481A
:10151000694600F0FFFE05980649086004980649F0
:10152000086003980549086006490120087006B064
:1015300080BDC046F8000020FC0000200001002013
:101540007B0000201301002080B58CB000200290A9
:10155000042101911A220692FFF76AFC01991020DA
:1015600003907522FFF7C0FC0199192004902622F0
:10157000FFF75EFC0199292009901222FFF758FC21
:101580000199069A46200590FFF752FC01995620D2
:1015900007906422FFF7A8FC019961200890272298
:1015A000FFF746FC019971200A902822FFF740FCC2
:1015B0000298069A06210B91FFF73AFC03980B99C3
:1015C0006C22FFF791FC04980B992222FFF730FC64
:1015D00009980B992322FFF72BFC0598069A0B9983
:1015E000FFF726FC07980A9A0B99FFF77DFC0898ED
:1015F000099A0B99FFF71CFC0A980B992A22FFF70E
:1016000017FC0CB080BD000081B001466846017037
:101610000021405600280DD4FFE7684601781F20BE
:1016200001400120884004490860BFF34F8FBFF399
:101630006F8FFFE701B0704780E100E081B00146A5
:101640006846017000214056002809D4FFE768462B
:1016500001781F2001400120884002490860FFE70F
:1016600001B0704700E100E080B582B0102000902A
:10167000022101910F22FFF7DBFB009A0199202044
:10168000FFF7D6FB019930201122FFF7D1FB01991A
:1016900040202C22FFF728FC019950201222FFF74E
:1016A000C7FB019960201322FFF7C2FB019970204C
:1016B0002122FFF719FC02B080BD000085B0049024
:1016C0000391029201A90020087002990868401C49
:1016D0000860039800680090012819D0FFE700987F
:1016E00002281FD0FFE70098032811D0FFE70098D9
:1016F00005280DD0FFE70098C01F022808D3FFE798
:1017000000980A2804D0FFE700980C2839D1FFE799
:1017100002980068202804D3FFE701A9012008707F
:10172000FFE738E004980078800700280AD1FFE737
:1017300004980168264848430221C8412549884247
:101740000AD8FFE704980168214848430421C841AA
:10175000214988420AD8FFE7029800681E2804D36E
:10176000FFE701A901200870FFE709E0029800687F
:101770001D2804D3FFE701A901200870FFE7FFE758
:1017800009E0029800681F2804D3FFE701A901209F
:101790000870FFE7FFE701A80078C007002815D010
:1017A000FFE702990120086003990868401C08605F
:1017B000039800680D2808D3FFE70399012008600B
:1017C00004990868401C0860FFE7FFE705B0704710
:1017D000295C8FC2285C8F020AD7A3008AB00990C7
:1017E0000020089007900690059004900390FFE772
:1017F00009980399405C002820D0FFE709980399D5
:10180000405C2F2807D1FFE70598002803D1FFE7A8
:10181000039805900DE009980399405C2F2807D1A3
:10182000FFE70598002803D0FFE703980490FFE73F
:10183000FFE7FFE70398401C0390D9E700200290E0
:10184000FFE70298059988420EDAFFE708980A2117
:1018500041430998029A805C401830380890FFE7AD
:101860000298401C0290ECE70598401C0190FFE7AD
:101870000198049988420EDAFFE707980A2141434C
:101880000998019A805C401830380790FFE701986A
:10189000401C0190ECE70498401C0090FFE7099879
:1018A0000099405C00280ED0FFE706980A214143CA
:1018B0000998009A805C401830380690FFE700983D
:1018C000401C0090EBE70898044908600798044919
:1018D00008600698034908600AB07047900000202D
:1018E000240000201C00002083B002900191002001
:1018F0000090FFE701980099405C00280AD0FFE7BC
:101900000198009A805C02998854FFE70098401C77
:101910000090EFE703B0704780B58AB00990089156
:101920000792FFF796F92F4800680C280AD1FFE7C5
:101930002E4A362000210191FFF73AFB01982C49ED
:10194000087005E0284A36200021FFF731FBFFE749
:10195000FFE7099800F050F82648FEF786FD00F0F2
:101960004DFD014606A801700078752815D1FFE7E6
:10197000FFF76FF90898006800F020FE08990860EA
:10198000089800680490079800680590099804A9D1
:1019900000F0DAFCFFF75DF921E006A80078642882
:1019A00015D1FFE7FFF755F90798006800F006FE2C
:1019B00007990860089800680290079800680390EB
:1019C000099802A900F0C0FCFFF743F906E006A859
:1019D0000078712801D1FFE702E0FFE7FFE7B8E7F1
:1019E0000AB080BD18000020A03A000028000020A6
:1019F0001001002000D4300080B58CB00B900B9A01
:101A0000002100910846FFF7D3FA009802210591C2
:101A100016220192FFF70CFA059910200290172266
:101A20000392FFF705FA0599202004901F22FFF783
:101A3000FFF9009A059930200690FFF7F9F905990A
:101A4000602007901A220892FFF7F2F90599722098
:101A500009907522FFF748FA0098019A04210A912B
:101A6000FFF7E6F90298039A0A99FFF7E1F904985B
:101A7000059A0A99FFF7DCF906980A991122FFF7EF
:101A8000D7F90798089A0A99FFF7D2F909980A999D
:101A90006422FFF729FA0CB080BD000080B590B039
:101AA0000FA9002008700E900890FFE70899C14820
:101AB000405C00280AD0FFE7089ABE48805C09A96C
:101AC0008854FFE70898401C0890EFE7089A09A996
:101AD00000208854FFE70021019109AA0846FFF77A
:101AE00067FA0198042100911A220292FFF7A0F9E7
:101AF0000099122003907122FFF7F6F90099222233
:101B000004921046FFF794F90099322005902322A1
:101B1000FFF78EF90198029A06210691FFF788F9DE
:101B2000039806997922FFF7DFF904980699202295
:101B3000FFF77EF9059806992122FFF779F900F061
:101B40005DFC014607A801700078002842D0FFE73D
:101B50000FA80078C00700283CD1FFE70FA901209B
:101B6000087007A80078712807D1FFE7FFF771F820
:101B700009A9002008700E902BE007A800783028F3
:101B80000FDBFFE707A8007839280ADCFFE7079892
:101B90000E9A511C0E9109A988540E9A002088545F
:101BA00016E007A8007875280AD1FFE70E9A501CA6
:101BB0000E9009A92F2088540E9A0020885406E020
:101BC00007A80078792801D1FFE70EE0FFE7FFE7DB
:101BD000FFE709E007A80078002804D1FFE70FA974
:101BE00000200870FFE7FFE775E709A8FFF7F6FD9B
:101BF000FFF72FF810B080BD82B00190FFE7019889
:101C000000280FD0FFE72D20C0000090FFE70098CC
:101C1000411E0091002801D0FFE7F8E70198401E1F
:101C20000190ECE702B0704780B590B0FFF711F873
:101C300000F08CFD0FA900200870FFE793480068B2
:101C40000E905A480078C00700284CD0FFE70020CB
:101C50000290FFE702995648405C00280AD0FFE74F
:101C6000029A5348805C09A98854FFE70298401CF7
:101C70000290EFE7029A09A9002088540390FFE739
:101C800003994C48405C00280AD0FFE7039A494872
:101C9000805C04A98854FFE70398401C0390EFE799
:101CA000039A04A8002181544048017009AA0846FB
:101CB000FFF77EF940480068182806D1FFE7404A40
:101CC00048200021FFF774F905E03C4A4820002134
:101CD000FFF76EF9FFE70020022104AAFFF768F979
:101CE00000F00EFDFFE700F089FB014601A801703E
:101CF000007800284BD0FFE70FA80078C007002825
:101D000045D1FFE70FA90120087001A800787928C4
:101D100035D1FFE72848006818281BD1FFE726497E
:101D20000C2008600E980D2807D3FFE70E980C389A
:101D30000E9022495020087008E00E980C2804D11B
:101D4000FFE71E4950200870FFE7FFE71D4901200B
:101D5000087010E0184918200860184800785028CA
:101D600008D1FFE70E980B2804D8FFE70E980C3037
:101D70000E90FFE7FFE70E984449086006E001A8CF
:101D80000078712801D1FFE70CE0FFE709E001A826
:101D90000078002804D1FFE70FA900200870FFE7B2
:101DA000FFE74BE7FEF755FF10B080BD12010020A2
:101DB0002B0000200300002018000020000000205D
:101DC000A03A00001001002080B584B01020FFF779
:101DD0001BFCFEF73EFFFFE700F05EF8AB48FEF7A6
:101DE00044FB00F00BFB014603A80170274909687A
:101DF00002912749096801912649096800910078F4
:101E000075280AD1FFE7FEF724FF029800F0D6FB01
:101E1000029002981D49086031E003A80078642808
:101E20000AD1FFE7FEF715FF019800F0C7FB01900C
:101E300001981749086021E003A800786C280AD1AE
:101E4000FFE7FEF706FF009800F0B8FB009000984F
:101E50001049086011E003A80078722805D1FFE757
:101E6000FEF7F7FEFFF71AFE06E003A800787128D8
:101E700001D1FFE704E0FFE7FFE7FFE7FFE7ABE79C
:101E80001020FFF7DBFB04B080BDC046200000201F
:101E9000200100202401002080B58EB00021049193
:101EA000162205920846FEF7C3FF049910200690FB
:101EB00017220792FEF7BCFF0499202008901F22EA
:101EC000FEF7B6FF049A302009901146FEF7B0FFE6
:101ED000049960200A901A220B92FEF7A9FF049938
:101EE00072200D907522FEF7FFFF0498059A0221DB
:101EF0000191FEF79DFF01990698079AFEF798FF5A
:101F0000019A08981146FEF793FF0199099811224A
:101F10000292FEF78DFF01990A980B9AFEF788FF4F
:101F200001990D986422FEF7DFFF0498059A0421B9
:101F30000391FEF77DFF03990698079AFEF778FF55
:101F4000039908980322FEF773FF029A03990998F0
:101F5000FEF76EFF03990A980B9AFEF769FF039943
:101F60000D986C22FEF7C0FF0498059A06210C918B
:101F7000FEF75EFF0698079A0C99FEF759FF08983E
:101F80000C991422FEF754FF09980C990B22FEF7C6
:101F90004FFF0C9940201522FEF74AFF0A980B9A32
:101FA0000C99FEF745FF0C990D9A1046FEF79CFF21
:101FB0000EB080BD80B582B01020FFF725FBFEF784
:101FC00048FEFEF7E4F93148FEF74FFA01A9002078
:101FD0000870FFE700F012FA0146684601700078C9
:101FE000002840D0FFE701A80078C00700283AD1B8
:101FF000FFE701A9012008706846007875280AD11A
:10200000FFE72A482A492B4AFFF786FCFEF721FE04
:10201000FEF7BDF926E06846007864280AD1FFE79C
:102020001F482049204AFFF777FCFEF712FEFEF713
:10203000AEF916E0684600786C280AD1FFE715482B
:102040001549164AFFF768FCFEF703FEFEF79FF9F5
:1020500006E068460078712801D1FFE70EE0FFE74F
:10206000FFE7FFE709E068460078002804D1FFE7B2
:1020700001A900200870FFE7FFE7ABE70449012052
:1020800008701020FFF7DAFA02B080BD00D43000EB
:1020900011010020670000200C0100201C0100201D
:1020A0005300002008010020180100203F000020FC
:1020B000040100201401002080B58AB01020FFF731
:1020C000A3FAFEF7C6FDFFF73FFA444A002101914B
:1020D0000846FEF76DFF019809A90870FFE7404820
:1020E0000078C00700281ED0FFE70020039003906F
:1020F000FFE703993948405C00280AD0FFE7039ABC
:102100003648805C04A98854FFE70398401C03907C
:10211000EFE7039804AA00211154314801700846E2
:10212000FEF746FFFFE700F069F9014602A80170DB
:10213000007800283FD0FFE709A80078C0070028F2
:1021400039D1FFE709A90120087002A80078752895
:1021500007D1FFE72748FEF7CDFC0220FFF76EFA14
:1021600028E002A80078642807D1FFE70220FFF7E3
:102170004BFA2048FEF7C8FC1BE002A800786C2848
:102180000FD1FFE715481749FFF7AEFB16490020AE
:102190000860164908601649086011490120087056
:1021A00006E002A80078712801D1FFE70EE0FFE702
:1021B000FFE7FFE709E002A80078002804D1FFE765
:1021C00009A900200870FFE7FFE788E7FEF741FD57
:1021D0001020FFF733FA0AB080BDC0467B00002014
:1021E00013010020A33A0000F8000020FC000020AA
:1021F000000100200060084080B58EB000210991E8
:1022000018220846FEF714FE09991020059019229D
:10221000FEF70EFE099A202007901146FEF708FEF1
:1022200009993020089001220192FEF701FE0999D8
:1022300060200A901A220B92FEF7FAFD099972208B
:102240000D907522FEF750FE099802210291162288
:102250000492FEF7EDFD0299059817220692FEF70B
:10226000E7FD02990798099AFEF7E2FD019A0299A3
:102270000898FEF7DDFD02990A980B9AFEF7D8FD43
:1022800002990D986422FEF72FFE049A0998042102
:102290000391FEF7CDFD03990598069AFEF7C8FD58
:1022A000039907981B22FEF7C3FD039908981C2287
:1022B000FEF7BEFD03990A980B9AFEF7B9FD039944
:1022C0000D986C22FEF710FE049A099806210C91D5
:1022D000FEF7AEFD0598069A0C99FEF7A9FD079842
:1022E0000C991D22FEF7A4FD0898099A0C99FEF797
:1022F0009FFD0C9940201E22FEF79AFD0A980B9A2A
:102300000C99FEF795FD0C990D9A1046FEF7ECFD21
:102310000EB080BD80B582B0019000910198009907
:10232000096800F025F80198C01C0099496800F080
:102330001FF80198801D0099896800F019F801992B
:102340000020087202B080BD80B582B0019000917B
:1023500001980099096800F02EF80198C01C0099B6
:10236000496800F028F801990020487102B080BD4A
:1023700080B584B0039002910298092808D8FFE73D
:10238000039930200870029830300399487010E0AB
:1023900002980A210191FDF70FFF01993030039A4D
:1023A00010700298FDF708FF302001430398417038
:1023B000FFE704B080BD80B584B00390029102981D
:1023C000092808D8FFE703993020087002983030B8
:1023D0000399487010E002980A210191FDF7ECFE84
:1023E00001993030039A10700298FDF7E5FE302015
:1023F000014303984170FFE704B080BD80B590B001
:1024000080200D9002200C9001200B9001030E9172
:1024100081040A91410409918103089140030790C6
:102420003648069036480590364804903648039062
:1024300000200290FFE70298032856DCFFE7002007
:102440000090FFE7009803281ADCFFE70098029944
:10245000884208D1FFE7009881000BA841582C481A
:10246000FEF747F807E0009881000BA8415828487C
:10247000FEF7D4F8FFE7FFE70098401C0090E1E783
:102480002248FDF7F2FF00200190FFE701980328A2
:1024900026DCFFE70198810007A841581C48FEF799
:1024A0009BF8002817D1FFE71A48FDF7DEFF0198D7
:1024B000810007A841581648FEF78EF8002809D178
:1024C000FFE7029880000199411803A8405C0FA91A
:1024D00008700EE0FFE7FFE70198401C0190D5E788
:1024E000FFE70298401C0290A5E70FA900200870A2
:1024F000FFE70FA8007810B080BDC0467130797238
:102500003738396C3435366431323375A8610000A0
:1025100000000A4000C4090080B584B0002001908A
:102520000390FEF7C5FEFEF7C9FBFFF79DF81F48B5
:10253000FDF79BFFFEF78DFB1020FFF77FF81C488F
:10254000FEF7D8FA1B480090FEF7D4FA0098019ADB
:102550001949FEF787FAFFE7FFF74EFEFFF74EFF38
:10256000014602A801700078752803D1FFE7FFF744
:102570005BFB1AE002A80078642803D1FFE7FFF7AD
:1025800023FC11E002A800786C2803D1FFE7FFF7D5
:1025900011FD08E002A80078722803D1FFE7FFF7D9
:1025A0008BFDFFE7FFE7FFE7FFE7D5E70048E8011E
:1025B0000040084000800840C409000080B58EB08B
:1025C0000D9000200990042103911A220492FEF735
:1025D0002FFC0399122005907122FEF785FC0399C8
:1025E000222206921046FEF723FC03993220079020
:1025F0002322FEF71DFC049A099806210891FEF794
:1026000017FC059808997922FEF76EFC0698089940
:102610002022FEF70DFC079808992122FEF708FCFE
:1026200009980CA90870FFE70D980A2815D3FFE751
:102630000D980A210191FDF7BFFD019930300BAAD9
:10264000029210700D98FDF7B7FD084602993022EE
:10265000104348700020887008E00BA92020087003
:102660000D983030487000208870FFE700210BAAD9
:102670000846FEF79DFCFFF7C1FE01460AA801705F
:10268000007800282DD0FFE70CA80078C0070028AC
:1026900027D1FFE70CA9012008700AA8007871284B
:1026A00003D1FFE700200D901AE00AA80078302837
:1026B0000EDBFFE70AA80078392809DCFFE70D9850
:1026C0000A2141430AA80078401830380D9006E0EE
:1026D0000AA80078792801D1FFE70DE0FFE7FFE7BE
:1026E00009E00AA80078002804D1FFE70CA900201F
:1026F0000870FFE7FFE797E70D980EB080BD000078
:1027000080B582B00020042100910D22FEF790FBDD
:10271000009910200E22FEF78BFB0948006809493A
:102720000968094A126800F0D4F8009901900198EC
:10273000001DC2B22020FEF77BFB02B080BDC04668
:1027400090000020240000201C00002080B582B0F2
:102750000020062101911A22FEF76AFB0199102040
:102760007922FEF7C1FB019919202422FEF760FBB4
:10277000019929202522FEF75BFB0199024A3920A5
:10278000FEF716FC02B080BDAC3A000080B58CB0FC
:102790000B900A910A98006809900A98406808907E
:1027A0000A988068079000200690FFE706980328A3
:1027B00016DCFFE709980A210291FDF7FDFC0846A7
:1027C0000299302210430B9A069BD21AD0700998B6
:1027D000FDF7F2FC0990FFE70698401C0690E5E73C
:1027E0000B992F20087108980A2816D3FFE708983C
:1027F0000A210191FDF7E0FC019930300B9A5071EC
:102800000898FDF7D9FC302001430B9881710B9992
:102810002F20C8710720059009E0089830300B99E7
:1028200048710B992F20887106200590FFE70798C3
:102830000A282DD3FFE707980A210091FDF7BCFC79
:10284000009930300B9B059AD21850700798FDF70D
:10285000B3FC302001430B9A0598801881700598CD
:10286000C01C0490FFE704980599491D884209DAC5
:10287000FFE70B99049A20208854FFE70498401C36
:102880000490F0E70B9905984118002048711EE06C
:10289000079830300B9A0599891848700598801C64
:1028A0000390FFE703980599491D884209DAFFE77D
:1028B0000B99039A20208854FFE70398401C03904B
:1028C000F0E70B990598411800204871FFE70CB01C
:1028D00080BD80B58AB009900891079208980228B7
:1028E00007DCFFE708980C3006900998401E059019
:1028F00004E00898069009980590FFE70598642180
:102900000091FDF763FC009904900598FDF75EFCCB
:1029100003910798019006990D2048430D30052139
:10292000FDF754FC01460198401803994018CA1756
:10293000920F8918891040180499CA17920F8A18A3
:10294000921080184900401A0721FDF73FFC0291C0
:102950000298002804D5FFE70298C01D0290FFE707
:1029600002980AB080BD00FC848484FC0010101022
:102970001010FF1010000000000000000000000018
:10298000000000000000003F1010103F0000010692
:1029900040807F00000000000000000000000000F8
:1029A00000000000000000F8010600F0121212F210
:1029B000020202FE00000000000000000000000013
:1029C00000000000000000FF0000001F1111111F97
:1029D0000040807F000000000000000000000000B8
:1029E0000000000000008040209088868080808366
:1029F0008C1020408000000000000000000000005B
:102A000000000000000000804020180700408040C7
:102A10003F00000000000000000000000000000077
:102A20000000000000002424A4FE232200C038007F
:102A3000FF0008106000000000000000000000001F
:102A4000000000000000080601FF010681804040F0
:102A500027100C0300000000000000000000000030
:102A600000000000000020202020202021222C2017
:102A700020202020200000000000000000000000B6
:102A8000000000000000004020100C0300000001C6
:102A900002041860000000000000000000000000B8
:102AA000000000000000000000FE8282828282821C
:102AB00082FE000000000000000000000000000096
:102AC000000000000000000000FF40404040404087
:102AD00040FF0000000000000000000000000000B7
:102AE00000000000000080808080808080808080E6
:102AF0008080808080000000000000000000000056
:102B000000000000000000000000000000000000C5
:102B100000000000000000000000000000000000B5
:102B20000000000000000000080808080808080865
:102B3000080808000000000000000000000000007D
:102B400000000000000010101010101010101010E5
:102B50001010101010000000000000000000000025
:102B60000000000000000004848484848484848441
:102B700084848404000000000000000000000000C5
:102B80000000000000002020202020202020202005
:102B90002020202020000000000000000000000095
:102BA00000000000000000FC040404FC040404FC19
:102BB000040404FC0000000000000000000000000D
:102BC000000000000000007F282423202020202176
:102BD0002222227F00000000000000000000000010
:102BE0000000000000000002424242C27E42424217
:102BF00042C20202000000000000000000000000CD
:102C00000000000000004040404078474040404005
:102C1000407F404040000000000000000000000035
:102C2000000000000000002018C744444444FC4455
:102C300044444404000000000000000000000000C4
:102C40000000000000000404040704040404FF045E
:102C50000404040404000000000000000000000060
:102C60000000000000000000FE82929292FE92920C
:102C70009282FE0000000000000000000000000042
:102C800000000000000080601F00001E1212121ED3
:102C900040807F00000000000000000000000000F5
:102CA000000000000000000000BE2A2A2AEA2A2AAA
:102CB0002A3E0000000000000000000000000000AC
:102CC000000000000000004442494949497F494949
:102CD00049494140000000000000000000000000E1
:102CE0000000000000000004FF242424FF0400FE74
:102CF000222222FE00000000000000000000000070
:102D000000000000000088482F090919AF48300F63
:102D10000242827F0000000000000000000000006E
:102D200000000000000090523410FF1034528070F8
:102D30008F0808F8080000000000000000000000F4
:102D4000000000000000829A566322528E008040EC
:102D5000330C334080000000000000000000000041
:102D6000000000000000100C042424242526A46484
:102D7000240404140C000000000000000000000007
:102D8000000000000000020202020242827F0202F2
:102D90000202020202000000000000000000000029
:102DA00000000000000020102CE7242400F0101088
:102DB000FF1010F000000000000000000000000004
:102DC0000000000000000101017F21110007020244
:102DD000FF020207000000000000000000000000E9
:102DE000000000000000000000FC4444444546444C
:102DF0004444447C0000000000000000000000008B
:102E00000000000000004020180700FC4444444437
:102E1000444444FC000000000000000000000000EA
:102E20000000000000004044C4444444401010FF2F
:102E3000101010F000000000000000000000000072
:102E4000000000000000103C131014B840300E01C8
:102E50004080403F00000000000000000000000033
:102E60000000000000000404040404FC4444444442
:102E700044C404040400000000000000000000003E
:102E80000000000000008040201806010000408083
:102E9000403F0000000000000000000000000000B3
:102EA0000000000000000000FE0242424242FA42DE
:102EB000424242C202000000000000000000000088
:102EC00000000000000080601F8040201806010004
:102ED0004080403F000000000000000000000000B3
:102EE000000000000000404042CC0040A09E8282D2
:102EF000829EA020200000000000000000000000D2
:102F00000000000000000000003F908840432C10AB
:102F10002846418080000000000000000000000002
:102F2000000000000000001715D55557557D555776
:102F300055D515170000000000000000000000003B
:102F40000000000000004040407F55555555555544
:102F5000557F4040400000000000000000000000DD
:102F6000000000000000000000FE929292929292F7
:102F700092FE0000000000000000000000000000C1
:102F800000000000000040424458407F4040407F25
:102F900040504846400000000000000000000000D3
:102FA00000000000000040404242424242C2424211
:102FB00042424240400000000000000000000000CB
:102FC000000000000000201008060040807F000084
:102FD00000020408300000000000000000000000B3
:102FE000000000000000101010FF9020988888E971
:102FF0008E8888A8980000000000000000000000F3
:103000000000000000000242817F000080844B2805
:1030100010284780000000000000000000000000B1
:1030200000000000000000F8012220222AF22222E3
:10303000222202FE0000000000000000000000004C
:1030400000000000000000FF00001F01017F0911C7
:103050000F40807F00000000000000000000000022
:1030600000000000000020102CE7242400F01010C5
:10307000FF1010F000000000000000000000000041
:103080000000000000000101017F21110007020281
:10309000FF02020700000000000000000000000026
:1030A000000000000000404042CC0040404040FF93
:1030B00040404040400000000000000000000000D0
:1030C0000000000000000000007F2010000000FF52
:1030D00000000000000000000000000000000000F0
:1030E00000000000000080809E9292929EE0809EF0
:1030F000B2D2929E8000000000000000000000009C
:103100000000000000000808F4949292F10001F21F
:10311000929494F8080000000000000000000000F5
:10312000000000000000000000E0000000FF0000C0
:1031300000204080000000000000000000000000AF
:10314000000000000000080403000040807F000031
:10315000000000010E000000000000000000000060
:103160000000000000000484E45C44C42010E82750
:1031700024E4342CE0000000000000000000000007
:1031800000000000000002017F10103F80601F0956
:10319000093F49897F000000000000000000000096
:1031A000000000000000404042CC0000000000FF92
:1031B000000000000000000000000000000000000F
:1031C0000000000000000000003F904820180700A9
:1031D00007182040800000000000000000000000F0
:1031E0000000000000001060028C00445454547F22
:1031F000545454444000000000000000000000004F
:1032000000000000000004047E010000FF151515F9
:1032100055957F0000000000000000000000000045
:10322000000000000000100C05555555857F8555A0
:10323000555505140C0000000000000000000000BF
:103240000000000000000404020A09292A4C48A9D1
:103250001902020404000000000000000000000049
:10326000000000000000404040FF2020200404FC3B
:10327000040404FC00000000000000000000000046
:103280000000000000000000001F08844220180712
:103290004080403F000000000000000000000000EF
:1032A000000000000000101010FF902010E82724FC
:1032B000E4342CE0000000000000000000000000EA
:1032C0000000000000000242817F00848447241C2B
:1032D000071C2447840000000000000000000000DC
:1032E00000000000000080828282FE828282828250
:1032F000FE828282800000000000000000000000CA
:10330000000000000000008040300F0000000000BE
:10331000FF000000000000000000000000000000AE
:10332000000000000000829A9693FA5252807E12AA
:103330001212F11110000000000000000000000057
:10334000000000000000000100FE93929392929210
:1033500092FE0300000000000000000000000000DA
:103360000000000000008060F80700047454555607
:10337000545474040000000000000000000000002D
:103380000000000000000000FF0003010545857DEE
:10339000050505010300000000000000000000001A
:1033A00000000000000000001011161010F01010B6
:1033B00014131000000000000000000000000000D6
:1033C0000000000000008181414121110D030D1119
:1033D0002141418181000000000000000000000048
:1033E00000000000000000F80122202222A2FA22A0
:1033F000222202FE00000000000000000000000089
:1034000000000000000000FF0008040211201F005F
:103410000040807F0000000000000000000000006D
:103420000000000000004262524AC6425262C200DE
:10343000F80000FF00000000000000000000000095
:1034400000000000000040C444447F2424242000E5
:103450000F40807F0000000000000000000000001E
:10346000000000000000000000000000000000005C
:10347000000000000000000000F800000000000054
:1034800000333000000000100C06100C0600000095
:1034900000000000000040C07840C0784000043FB9
:1034A00004043F040400007088FC08300000001889
:1034B00020FF211E0000F008F000E01800000021AD
:1034C0001C031E211E0000F00888700000001E2151
:1034D00023241927211010160E0000000000000000
:1034E000000000000000000000E0180402000000DE
:1034F00000071820400000020418E000000000400F
:10350000201807000000404080F080404000020288
:10351000010F01020200000000F0000000000101A4
:10352000011F01010100000000000000000080B048
:10353000700000000000000000000000000000011A
:103540000101010101010000000000000000003045
:1035500030000000000000000000806018040060DF
:1035600018060100000000E010080810E000000F3D
:10357000102020100F00001010F8000000000020A4
:10358000203F2020000000700808088870000030EC
:103590002824222130000030088888483000001894
:1035A000202020110E000000C02010F800000007AD
:1035B0000424243F240000F8088888080800001923
:1035C000212020110E0000E0108888180000000F54
:1035D000112020110E0000380808C838080000002B
:1035E000003F000000000070880808887000001C80
:1035F000222121221C0000E010080810E000000039
:10360000312222110F00000000C0C00000000000A5
:1036100000303000000000000080000000000000CA
:1036200080600000000000008040201008000001C1
:103630000204081020004040404040404000040484
:10364000040404040400000810204080000000204E
:10365000100804020100007048080808F00000008B
:10366000003036010000C030C828E810E00007181C
:10367000272423140B000000C038E0000000203C89
:1036800023020227382008F8888888700000203F2D
:10369000202020110E00C030080808083800071844
:1036A00020202010080008F808080810E000203F3B
:1036B000202020100F0008F88888E8081000203F1C
:1036C00020202320180008F88888E8081000203FF0
:1036D000200003000000C030080808380000071868
:1036E0002020221E020008F808000008F808203FE9
:1036F000210101213F20000808F8080800000020EF
:10370000203F2020000000000808F8080800C080C2
:1037100080807F00000008F888C028180800203F3B
:1037200020012638200008F8080000000000203F93
:1037300020202020300008F8F800F8F80800203F8A
:10374000003F003F200008F830C00008F808203F84
:10375000200007183F00E01008080810E0000F10D4
:10376000202020100F0008F808080808F000203F6B
:10377000210101010000E01008080810E0000F1806
:10378000242438504F0008F8888888887000203F2B
:103790002000030C3020007088080808380000382A
:1037A000202121221C00180808F808081800000031
:1037B000203F2000000008F808000008F808001F5B
:1037C000202020201F000878880000C8380800004A
:1037D00007380E010000F80800F80008F800033C64
:1037E0000700073C0300081868808068180820302C
:1037F0002C03032C30200838C800C838080000000B
:10380000203F2000000010080808C83808002038B1
:10381000262120201800000000FE02020200000005
:10382000007F40404000000C30C00000000000005D
:1038300000010638C00000020202FE000000004045
:1038400040407F000000000004020202040000006B
:103850000000000000000000000000000000808068
:103860008080808080800002020400000000000050
:10387000000000000000000080808080000000192F
:10388000242222223F2008F8008080000000003F10
:10389000112020110E000000008080800000000E2A
:1038A000112020201100000000808088F800000E08
:1038B000112020103F200000808080800000001F29
:1038C000222222221300008080F08888881800209D
:1038D000203F202000000000808080808000006B5E
:1038E00094949493600008F8008080800000203F4A
:1038F000210000203F200080989800000000002058
:10390000203F20200000000000809898000000C0A8
:103910008080807F000008F8000080808000203FC9
:1039200024022D302000000808F8000000000020CC
:10393000203F202000008080808080808000203F09
:1039400020003F20003F8080008080800000203FDA
:10395000210000203F200000808080800000001FA8
:10396000202020201F00808000808000000080FF39
:10397000A12020110E000000008080808000000E39
:10398000112020A0FF808080800080808000202087
:103990003F212000010000008080808080000033F3
:1039A000242424241900008080E08080000000008E
:1039B000001F202000008080000000808000001F89
:1039C000202020103F208080800000808080000127
:1039D0000E300806010080800080008080800F305B
:1039E0000C030C300F0000808000808080000020DD
:1039F000312E0E3120008080800000808080808108
:103A00008E70180601000080808080808000002178
:103A1000302C2221300000000000807C02020000D7
:103A20000000003F404000000000FF0000000000D8
:103A30000000FF0000000002027C80000000004047
:103A4000403F00000000FFFFFFFFFFFFFFFFFFFF01
:103A5000FFFFFFFFFFFF0407630000008813000063
:103A60000000000008076300020000003F9C000007
:103A700000000000000000000000000008076300D4
:103A8000020000003F9C0000000000000000000059
:103A900000000000080000001800000000300000D6
:103AA00020200030303A30303A30300031322F327E
:103AB0003400000000000000D83A000000000020A0
:103AC0009800000020010000703B000098000020DA
:103AD0009001000048010000414D00323032362F85
:103AE000312F31372020202020000000000000006E
:103AF0001800000011000000060000000100000096
:103B0000414D0030363A30303A303000000000008D
:103B10000000000000000030303A303000000000AB
:103B2000000000000000000000000030303A30309B
:103B30000000000000000000000000000000003055
:103B4000303A3030000000000000000000000000AB
:103B500000000030303A30303A30300000000000D1
:103B60000000000000000000EA0700000000000064
:04000005000000C136
:00000001FF
